:04000000803114280F
:100008007E14803120007F08F6002E00961A8C1E80
:100018000F288131802176082000FF007E1009001A
:1000280080311628F001F101F201F301F4012000FA
:10003800A001A101A201A301A401A501A601A70194
:100048007E102000803128288131742180318B175F
:100058000B178131612180314D308031F920803199
:1000680082302000A900DD30890B3828A90B3828F8
:10007800003249308031F920803182302000A900D7
:10008800DD30890B4528A90B452800324E308031D8
:10009800F920803182302000A900DD30890B5228F8
:1000A800A90B5228003253308031F9208031823038
:1000B8002000A900DD30890B5F28A90B5F280032DA
:1000C80041308031F920803182302000A900DD30B4
:1000D800890B6C28A90B6C28003253308031F92029
:1000E800803182302000A900DD30890B7928A90BE6
:1000F8007928003249308031F9208031823020005F
:10010800A900DD30890B8628A90B862800320D301E
:100118008031F920803182302000A900DD30890B40
:100128009328A90B932800320A308031F9208031B6
:100138003028E62817100130F5007508AA00F201EA
:100148000800083072020318B528711CAD2817146E
:10015800AE2817100310F10C0130F5007508F207EE
:10016800080017140230F5007508AA0008000830C6
:100178007B020318D5287308203E860087010108F2
:10018800F5007508F1000130F5007508F30708302F
:1001980073020318F3010130F5007508FB07AA0183
:1001A8000800701408000A3072020318E0280130B1
:1001B800F5007508F207080017140230F5007508F5
:1001C800AA00080020002A08003A03199E28013ACC
:1001D8000319A528033A0319BB28013A0319D7289C
:1001E8000B3A0319F828F82808002000A8007B0813
:1001F8000319FB28701C1429F01D062981319D2143
:1002080080310F2920002808F8007808F100013013
:10021800F8007808AA00701020001710F2012529AC
:1002280020002808F8007408203E86008701780816
:1002380081000130F8007808F407083074020318C8
:10024800F4010130FB02080020009A01990196018F
:100258009701980107309500EF309100FE30920029
:10026800FF309300FF309400FF303E00D900FF308C
:10027800CE00FE30C3000730E400EF30B800DA01EA
:10028800E501C401B901CF01E601BA01C501D001F8
:10029800DB010800403020009F0067309D009C0172
:1002A8002E008C129616A930F7000130F800813123
:1002B800A421803020009E0008009D30F700003007
:1002C800F8008131A42108302000A8002808AA00DD
:1002D800F001701417140830A8002808FB00080063
:1002E80081319521813181312821813181318C21E0
:1002F800813181314E2108002E008C1279087A0450
:10030800031908007A088A0079080A008131080070
:10031800623031008D008F01910105309300920108
:1003280008002F0096019701980199019A019B01F5
:1003380008000330F70077082000AA00F011080031
:0C0348007808FA007708F90008000800A7
:020000040001F9
:0A000E00EC3FFF3F9F3FFF3FFF3F25
:00000001FF
